:100000000C942A000C9447000C9447000C94470071
:100010000C9447000C9447000C9447000C94470044
:100020000C9447000C9425080C9447000C9447004E
:100030000C9447000C9447000C9447000C94470024
:100040000C9447000C9447000C9447000C94470014
:100050000C94470011241FBECFE5D4E0DEBFCDBF16
:1000600011E0A8E6B1E001C01D92AB38B107E1F79D
:1000700011E0A0E6B0E0E0EAF3E102C005900D92E5
:10008000A836B107D9F70E9404090C94CE090C9444
:100090000000EF92FF920F931F937B018C0120E0F1
:1000A00030E040E05FE40E94C50388238CF0C80183
:1000B000B70120E030E040E05FE40E94C1010E940F
:1000C00025049B01AC01205030404040504806C000
:1000D000C801B7010E9425049B01AC01B901CA0106
:1000E0001F910F91FF90EF900895A0E0B0E0EBE733
:1000F000F0E00C945309DC012B01FA019C91923041
:1001000008F439C1EB018881823008F433C194309E
:1001100069F4843009F02FC111969C91119789815F
:10012000981709F428C1A0E6B0E025C1843009F48D
:1001300021C18230A9F4923009F01DC19A01AD01AC
:1001400088E0EA010990AE01E90109929E0181501F
:10015000C1F7E201898111969C918923818308C1AD
:10016000923009F407C112962D903C901397EB0141
:100170008A819B811496AD90BD90CD90DC901797AD
:10018000EC80FD800E811F819101281B390BB90184
:1001900037FF04C066277727621B730B6032710537
:1001A0000CF061C0121613066CF537014801062EDB
:1001B00004C096948794779467940A94D2F721E0C8
:1001C00030E040E050E004C0220F331F441F551FB1
:1001D0006A95D2F721503040404050402E213F21B7
:1001E00040235123211531054105510521F021E01E
:1001F00030E040E050E079018A01E628F72808293C
:1002000019293CC0232BD1F1260E371E350146019A
:10021000062E04C096948794779467940A94D2F734
:1002200021E030E040E050E004C0220F331F441FC3
:10023000551F6A95D2F721503040404050402A2146
:100240003B214C215D21211531054105510521F04E
:1002500021E030E040E050E059016A01A628B728CB
:10026000C828D9280BC0821593052CF01C01AA249C
:10027000BB24650103C0EE24FF24870111969C91E5
:10028000D20111968C91981709F445C0992339F041
:10029000A80197012A193B094C095D0906C0A6016E
:1002A00095012E193F09400B510B57FD08C01182D3
:1002B0003382228224833583468357831DC081E0A5
:1002C00081833382228288279927DC01821B930B4A
:1002D000A40BB50B84839583A683B7830DC0220F2F
:1002E000331F441F551F24833583468357838281E0
:1002F000938101979383828324813581468157813D
:10030000DA01C9010197A109B1098F5F9F4FAF4F72
:10031000BF4328F30BC0918333822282EA0CFB1C7B
:100320000C1D1D1DE482F5820683178383E0808304
:10033000248135814681578157FF1AC0C901AA27F8
:1003400097FDA095BA2F81709070A070B0705695EF
:10035000479537952795822B932BA42BB52B848318
:100360009583A683B7838281938101969383828349
:10037000DF0101C0D201CD01CDB7DEB7E2E10C94BF
:100380006F09A0E2B0E0E7ECF1E00C945F0969834B
:100390007A838B839C832D833E834F835887E9E048
:1003A000EE2EF12CEC0EFD1ECE010196B7010E943F
:1003B00016068E010F5E1F4FCE010596B8010E94F2
:1003C00016068A8991E089278A8BC701B801AE0198
:1003D000475E5F4F0E9475000E944105A096E6E0CF
:1003E0000C947B09A0E2B0E0E8EFF1E00C945F0927
:1003F00069837A838B839C832D833E834F835887C5
:10040000F9E0EF2EF12CEC0EFD1ECE010196B701A6
:100410000E9416068E010F5E1F4FCE010596B80191
:100420000E941606C701B801AE01475E5F4F0E94E9
:1004300075000E944105A096E6E00C947B09A0E2BD
:10044000B0E0E5E2F2E00C94530969837A838B8390
:100450009C832D833E834F835887CE010196BE0136
:10046000675F7F4F0E941606CE010596BE016F5E44
:100470007F4F0E9416069985923088F089898230D4
:10048000C8F0943019F4823051F404C0843029F457
:10049000923081F480E690E0C6C0923049F420E0CA
:1004A0009A858A89981321E02A87CE010996BBC0D4
:1004B000823049F420E09A858A89981321E02A8BBA
:1004C000CE014196B0C02D843E844F8458886D88FB
:1004D0007E888F88988CEE24FF248701AA24BB2471
:1004E000650140E050E060E070E0E0E0F0E0C10174
:1004F00081709070892BE9F0E60CF71C081D191D1E
:100500009A01AB012A0D3B1D4C1D5D1D80E090E062
:10051000A0E0B0E0E614F7040805190520F481E036
:1005200090E0A0E0B0E0BA01A901480F591F6A1F8E
:100530007B1FAA0CBB1CCC1CDD1C97FE08C081E0F5
:1005400090E0A0E0B0E0A82AB92ACA2ADB2A3196B6
:10055000E032F10549F0660C771C881C991C569412
:10056000479437942794C3CFFA85EA892B893C892D
:100570008B859C85280F391F2E5F3F4F17C0CA01FE
:1005800081709070892B61F016950795F794E79428
:1005900080E090E0A0E0B0E8E82AF92A0A2B1B2BC3
:1005A00076956795579547952F5F3F4F77FDE7CF36
:1005B0000CC0440F551F661F771F17FD4160EE0CDE
:1005C000FF1C001F111F21503040403090E05907A0
:1005D00090E0690790E4790760F32B8F3C8FDB0193
:1005E000CA018F779070A070B07080349105A1051A
:1005F000B10561F447FD0AC0E114F10401051105DC
:1006000029F0405C5F4F6F4F7F4F40781A8EFE1786
:1006100011F081E08A8F4D8F5E8F6F8F78A383E01A
:10062000898FCE0149960E944105A096E2E10C9483
:100630006F09A8E1B0E0EFE1F3E00C945B09698396
:100640007A838B839C832D833E834F835887B9E0C5
:10065000EB2EF12CEC0EFD1ECE010196B7010E948F
:1006600016068E010F5E1F4FCE010596B8010E943F
:1006700016062985223008F47EC03989323010F4FC
:10068000B8017CC08A859A8989278A87243011F02D
:10069000223031F4231709F06EC060E670E06EC0BE
:1006A000343039F41D861E861F86188A1C861B86E8
:1006B00004C0323021F484E08987B7015FC02B8504
:1006C0003C858B899C89281B390B3C872B87ED84C3
:1006D000FE840F851889AD88BE88CF88D88CEA142F
:1006E000FB040C051D0540F4EE0CFF1C001F111F40
:1006F000215030403C872B8720E030E040E050E044
:1007000080E090E0A0E0B0E460E070E0EA14FB0478
:100710000C051D0540F0282B392B4A2B5B2BEA18C2
:10072000FB080C091D09B695A79597958795EE0CC2
:10073000FF1C001F111F6F5F7F4F6F31710531F775
:10074000DA01C9018F779070A070B0708034910584
:10075000A105B10561F427FD0AC0E114F10401050A
:10076000110529F0205C3F4F4F4F5F4F20782D87B8
:100770003E874F87588BBE01675F7F4FCB010E943A
:1007800041056896EAE00C947709A8E1B0E0EBEC4B
:10079000F3E00C945F0969837A838B839C832D83B8
:1007A0003E834F83588789E0E82EF12CEC0EFD1E26
:1007B000CE010196B7010E9416068E010F5E1F4FF3
:1007C000CE010596B8010E9416068985823040F058
:1007D0008989823028F0C701B8010E948E0601C0C5
:1007E0008FEF6896E6E00C947B09A8E1B0E0EBEFB0
:1007F000F3E00C945F0969837A838B839C832D8358
:100800003E834F83588789E0E82EF12CEC0EFD1EC5
:10081000CE010196B7010E9416068E010F5E1F4F92
:10082000CE010596B8010E9416068985823040F0F7
:100830008989823028F0C701B8010E948E0601C064
:1008400081E06896E6E00C947B09ACE0B0E0EBE276
:10085000F4E00C94630969837A838B839C83CE01D3
:100860000196BE016B5F7F4F0E9416068D8182301C
:1008700061F1823050F1843021F48E81882351F16E
:100880002EC02F81388537FD20C06E812F31310574
:100890001CF06623F9F023C08EE190E0821B930BDD
:1008A00029853A854B855C8504C0569547953795D3
:1008B00027958A95D2F76623B1F0509540953095EB
:1008C00021953F4F4F4F5F4F0EC020E030E040E09A
:1008D00050E009C02FEF3FEF4FEF5FE704C020E08B
:1008E00030E040E050E8B901CA012C96E2E00C94F7
:1008F0007F09A8E0B0E0EFE7F4E00C945B097B012E
:100900008C01611571058105910519F482E08983D7
:1009100060C083E089838EE1C82ED12CDC82CB823B
:10092000ED82FE820F831887C801B7010E94F2048E
:10093000FC013197F7FF3BC0222733272E1B3F0BCB
:1009400057016801022E04C0D694C794B794A794A7
:100950000A94D2F740E050E060E070E081E090E07F
:10096000A0E0B0E004C0880F991FAA1FBB1F2A9502
:10097000D2F70197A109B1098E219F21A023B123AC
:100980000097A105B10521F041E050E060E070E082
:100990004A295B296C297D294D835E836F83788783
:1009A0008EE190E08E1B9F0B9C838B8312C030974F
:1009B00081F00E2E04C0EE0CFF1C001F111F0A94C4
:1009C000D2F7ED82FE820F831887CE1ADF0ADC820F
:1009D000CB821A82CE0101960E9441052896EAE058
:1009E0000C947709EF92FF920F931F937B018C0178
:1009F00080E0E81680E0F80681E0080780E018074C
:100A000088F48FEFE816F1040105110531F028F0A4
:100A100088E090E0A0E0B0E017C080E090E0A0E0C7
:100A2000B0E012C080E0E81680E0F80680E0080739
:100A300081E0180728F088E190E0A0E0B0E004C071
:100A400080E190E0A0E0B0E020E230E040E050E063
:100A5000281B390B4A0B5B0B04C016950795F794BE
:100A6000E7948A95D2F7F701E859FF4F8081281B58
:100A7000310941095109C9011F910F91FF90EF9070
:100A80000895DF92EF92FF920F931F93FC01E48091
:100A9000F58006811781D1808081823048F480E022
:100AA00090E0A0E1B0E0E82AF92A0A2B1B2BA5C0B0
:100AB000843009F49FC0823021F4EE24FF248701A2
:100AC00005C0E114F1040105110519F4E0E0F0E0BE
:100AD00096C0628173819FEF623879070CF05BC02A
:100AE00022E83FEF261B370B2A3131052CF020E09E
:100AF00030E040E050E02AC0B801A701022E04C057
:100B000076956795579547950A94D2F781E090E0DE
:100B1000A0E0B0E004C0880F991FAA1FBB1F2A9550
:100B2000D2F70197A109B1098E219F21A023B123FA
:100B30000097A105B10521F081E090E0A0E0B0E0D0
:100B40009A01AB01282B392B4A2B5B2BDA01C90107
:100B50008F779070A070B07080349105A105B105B9
:100B600039F427FF09C0205C3F4F4F4F5F4F04C04F
:100B7000215C3F4F4F4F5F4FE0E0F0E02030A0E0BE
:100B80003A07A0E04A07A0E45A0710F0E1E0F0E0DD
:100B900079018A0127C06038710564F5FB01E158CD
:100BA000FF4FD801C7018F779070A070B07080346C
:100BB0009105A105B10539F4E7FE0DC080E490E090
:100BC000A0E0B0E004C08FE390E0A0E0B0E0E80E69
:100BD000F91E0A1F1B1F17FF05C016950795F794EE
:100BE000E794319687E016950795F794E7948A95F0
:100BF000D1F705C0EE24FF248701EFEFF0E06E2F60
:100C0000679566276795902F9F77D794DD24D794B3
:100C10008E2F8695492F462B582F5D29B701CA0183
:100C20001F910F91FF90EF90DF900895FC01DB0181
:100C3000408151812281622F6F7770E0221F22272D
:100C4000221F9381892F880F822B282F30E0991F34
:100C50009927991F11969C93119721153105A9F594
:100C6000411551056105710511F482E037C082E834
:100C70009FEF13969C938E9312979A01AB0167E0B6
:100C8000220F331F441F551F6A95D1F783E08C93C1
:100C90000DC0220F331F441F551F12968D919C913A
:100CA0001397019713969C938E931297203080E0B0
:100CB000380780E0480780E4580758F314962D93CE
:100CC0003D934D935C93179708952F3F310579F429
:100CD000411551056105710519F484E08C9308955F
:100CE00064FF03C081E08C9312C01C9210C02F5788
:100CF000304013963C932E93129783E08C9387E0B9
:100D0000440F551F661F771F8A95D1F7706414969C
:100D10004D935D936D937C93179708951F93DC011A
:100D2000FB019C91923008F447C08081823008F426
:100D300043C0943051F411961C91843099F581810F
:100D4000682F70E0611B71093FC0843021F0923040
:100D500031F48230B9F18181882389F12DC0119657
:100D60001C9111978230F1F081811817D9F41296F5
:100D70002D913C911397828193818217930794F070
:100D800028173907BCF014968D919D910D90BC9158
:100D9000A02D2481358146815781281739074A07BC
:100DA0005B0718F4112341F00AC082179307A407C8
:100DB000B50740F4112319F061E070E005C06FEF52
:100DC0007FEF02C060E070E0CB011F910895909327
:100DD0007501809374010895982F8FB78F778FBF17
:100DE00083B7806883BF83B78C7B83BF9230B9F1B0
:100DF000933030F4992359F0913009F073C01BC03F
:100E0000933009F440C0943009F06CC050C083B7EF
:100E10008B7F83BF83B78D7F83BF83B7816083BFA1
:100E200081E090E0909369018093680180E492E40E
:100E3000A0E0B0E04FC083B78B7F83BF83B78E7FC6
:100E400083BF83B7826083BF88E090E0909369019D
:100E50008093680188E498EEA1E0B0E03BC083B7DE
:100E60008B7F83BF83B7816083BF83B7826083BF7B
:100E700080E490E0909369018093680189E09DE3AC
:100E8000A0E0B0E027C083B78D7F83BF83B78E7F9C
:100E900083BF83B7846083BF80E091E09093690152
:100EA0008093680182E49FE0A0E0B0E013C083B7C4
:100EB0008D7F83BF83B7816083BF83B7846083BF27
:100EC00080E094E0909369018093680180ED93E065
:100ED000A0E0B0E080936A0190936B01A0936C0155
:100EE000B0936D0112BE89B7816089BF8FB78068EA
:100EF0008FBF0895AF92BF92CF92DF92EF92FF9291
:100F00000F931F93A0E0B0E0809386019093870138
:100F1000A0938801B0938901BC01CD0128EE33E094
:100F200040E050E00E9412096093820170938301B7
:100F3000809384019093850120916801309169012B
:100F400040E050E00E94310979018A01E0927E017F
:100F5000F0927F010093800110938101C801B701D5
:100F60000E94790420E030E040E85BE30E941F0229
:100F70005B016C0160937A0170937B0180937C012B
:100F800090937D0120E030E040E85FE30E94F503AC
:100F9000882394F4C601B50120E030E040E853E432
:100FA0000E941F020E94490060937901619560933D
:100FB000780162BF82E03EC0EE2089F1C601B50132
:100FC0000E9449007B018C0128EE33E040E050E0B4
:100FD0000E9412090E9479049B01AC01C601B5016F
:100FE0000E94C10120E030E04AE754E40E94190366
:100FF00020E030E040E853E40E941F020E944900D4
:101000006093770161956093760162BFF0926F0102
:10101000E0926E0181E0809372018BE00BC0C6010B
:10102000B5010E94490070936F0160936E0181E0E9
:1010300080937201809373011F910F91FF90EF9045
:10104000DF90CF90BF90AF9008951F920F920FB690
:101050000F9211242F933F934F935F936F937F933E
:101060008F939F93AF93BF93EF93FF938091720100
:101070008130A1F48091700190917101019690935B
:101080007101809370012091700130917101809104
:101090006E0190916F012817390759F4E09174019E
:1010A000F0917501309729F0099510927101109215
:1010B0007001FF91EF91BF91AF919F918F917F91BF
:1010C0006F915F914F913F912F910F900FBE0F90B5
:1010D0001F901895949895982AEF30E0F901319770
:1010E000F1F7969AF9013197F1F785BBC90101979C
:1010F000F1F79698C9010197F1F708958FEF84BB36
:1011000081B3806781BB88E30E946A088CE00E94FB
:101110006A0881E00E946A080895949A95982AEFD7
:1011200030E0F9013197F1F7969AF9013197F1F72B
:1011300085BBC9010197F1F79698C9010197F1F7AD
:1011400008951F93CF93DF93EC0110E003C00E943A
:101150008D081F5FFE01E10FF11D80818823B9F723
:10116000DF91CF911F910895813039F0813050F097
:10117000823029F0833041F404C0605C03C0605FBA
:1011800001C0605B60938A0180918A0180680E943F
:101190006A0808950F931F938A010E94B408C8013A
:1011A0000E94A1081F910F91089581E00E946A0892
:1011B00008950F931F93DF93CF93CDB7DEB7C0543D
:1011C000D0400FB6F894DEBF0FBECDBFB901CA0143
:1011D0008E010F5F1F4FA8012AE030E00E948A09AC
:1011E000C8010E94A108C05CDF4F0FB6F894DEBFB3
:1011F0000FBECDBFCF91DF911F910F91089582B3A4
:1012000091E0892782BB089580E00E94EC06889ACD
:1012100090988FEF98E00E94E7068CE291E00E94A0
:101220007A07FBCF629FD001739FF001829FE00D90
:10123000F11D649FE00DF11D929FF00D839FF00D55
:10124000749FF00D659FF00D9927729FB00DE11D01
:10125000F91F639FB00DE11DF91FBD01CF011124DE
:101260000895A1E21A2EAA1BBB1BFD010DC0AA1FE7
:10127000BB1FEE1FFF1FA217B307E407F50720F0FF
:10128000A21BB30BE40BF50B661F771F881F991F7A
:101290001A9469F760957095809590959B01AC01C3
:1012A000BD01CF0108952F923F924F925F926F92AE
:1012B0007F928F929F92AF92BF92CF92DF92EF92E6
:1012C000FF920F931F93CF93DF93CDB7DEB7CA1B67
:1012D000DB0B0FB6F894DEBF0FBECDBF09942A8892
:1012E000398848885F846E847D848C849B84AA843A
:1012F000B984C884DF80EE80FD800C811B81AA81C7
:10130000B981CE0FD11D0FB6F894DEBF0FBECDBF91
:10131000ED010895FA01CF93FF93EF93223044F14A
:10132000253234F5C22FE894CA3049F497FB3EF4D5
:1013300090958095709561957F4F8F4F9F4F2C2F83
:10134000332744275527FF93EF930E943109EF91EC
:10135000FF91605D6A330CF0695D6193B901CA0168
:10136000605070408040904051F716F4CDE2C19338
:1013700010828F919F91CF910C94BE09DC01FC01EA
:10138000672F71917723E1F7329704C07C916D93B9
:1013900070836291AE17BF07C8F30895F894FFCF2A
:1013A000000000000000000000010202030303032C
:1013B00004040404040404040505050505050505E5
:1013C00005050505050505050606060606060606C5
:1013D00006060606060606060606060606060606AD
:1013E0000606060606060606070707070707070795
:1013F000070707070707070707070707070707077D
:10140000070707070707070707070707070707076C
:10141000070707070707070707070707070707075C
:101420000707070707070707080808080808080844
:10143000080808080808080808080808080808082C
:10144000080808080808080808080808080808081C
:10145000080808080808080808080808080808080C
:1014600008080808080808080808080808080808FC
:1014700008080808080808080808080808080808EC
:1014800008080808080808080808080808080808DC
:1014900008080808080808080808080808080808CC
:0814A000080808080808080804
:00000001FF
